{
  "_format": "hh-sol-artifact-1",
  "contractName": "PresaleContract",
  "sourceName": "contracts/PRESALE.sol",
  "abi": [
    {
      "inputs": [
        {
          "internalType": "address",
          "name": "_creator",
          "type": "address"
        },
        {
          "internalType": "address",
          "name": "_tokenHolder",
          "type": "address"
        },
        {
          "internalType": "address",
          "name": "_router",
          "type": "address"
        },
        {
          "internalType": "address",
          "name": "_factory",
          "type": "address"
        },
        {
          "internalType": "address",
          "name": "_wrapped",
          "type": "address"
        }
      ],
      "stateMutability": "nonpayable",
      "type": "constructor"
    },
    {
      "anonymous": false,
      "inputs": [
        {
          "indexed": true,
          "internalType": "address",
          "name": "from",
          "type": "address"
        },
        {
          "indexed": true,
          "internalType": "address",
          "name": "tokenHolder",
          "type": "address"
        },
        {
          "indexed": false,
          "internalType": "uint256",
          "name": "amount",
          "type": "uint256"
        }
      ],
      "name": "FundsForwarded",
      "type": "event"
    },
    {
      "anonymous": false,
      "inputs": [
        {
          "indexed": false,
          "internalType": "address",
          "name": "token",
          "type": "address"
        },
        {
          "indexed": false,
          "internalType": "uint256",
          "name": "rate",
          "type": "uint256"
        },
        {
          "indexed": false,
          "internalType": "uint256",
          "name": "price",
          "type": "uint256"
        },
        {
          "indexed": false,
          "internalType": "uint256",
          "name": "startTime",
          "type": "uint256"
        },
        {
          "indexed": false,
          "internalType": "uint256",
          "name": "endTime",
          "type": "uint256"
        },
        {
          "indexed": false,
          "internalType": "uint256",
          "name": "totalToken",
          "type": "uint256"
        },
        {
          "indexed": false,
          "internalType": "uint256",
          "name": "hardCap",
          "type": "uint256"
        },
        {
          "indexed": false,
          "internalType": "uint256",
          "name": "softCap",
          "type": "uint256"
        }
      ],
      "name": "Initialized",
      "type": "event"
    },
    {
      "anonymous": false,
      "inputs": [
        {
          "indexed": false,
          "internalType": "uint256",
          "name": "tokenAmount",
          "type": "uint256"
        },
        {
          "indexed": false,
          "internalType": "uint256",
          "name": "ethAmount",
          "type": "uint256"
        },
        {
          "indexed": false,
          "internalType": "address",
          "name": "liquidityPair",
          "type": "address"
        }
      ],
      "name": "LiquidityAdded",
      "type": "event"
    },
    {
      "anonymous": false,
      "inputs": [
        {
          "indexed": true,
          "internalType": "address",
          "name": "from",
          "type": "address"
        },
        {
          "indexed": true,
          "internalType": "address",
          "name": "to",
          "type": "address"
        },
        {
          "indexed": false,
          "internalType": "uint256",
          "name": "amount",
          "type": "uint256"
        }
      ],
      "name": "LiquidityTransferred",
      "type": "event"
    },
    {
      "anonymous": false,
      "inputs": [
        {
          "indexed": false,
          "internalType": "address[]",
          "name": "recipients",
          "type": "address[]"
        },
        {
          "indexed": false,
          "internalType": "uint256[]",
          "name": "amounts",
          "type": "uint256[]"
        }
      ],
      "name": "MultiTransferCompleted",
      "type": "event"
    },
    {
      "anonymous": false,
      "inputs": [
        {
          "indexed": false,
          "internalType": "bool",
          "name": "successful",
          "type": "bool"
        }
      ],
      "name": "PresaleEnded",
      "type": "event"
    },
    {
      "anonymous": false,
      "inputs": [
        {
          "indexed": true,
          "internalType": "address",
          "name": "buyer",
          "type": "address"
        },
        {
          "indexed": false,
          "internalType": "uint256",
          "name": "amount",
          "type": "uint256"
        }
      ],
      "name": "RefundClaimed",
      "type": "event"
    },
    {
      "anonymous": false,
      "inputs": [
        {
          "indexed": true,
          "internalType": "address",
          "name": "buyer",
          "type": "address"
        },
        {
          "indexed": false,
          "internalType": "uint256",
          "name": "amount",
          "type": "uint256"
        }
      ],
      "name": "TokenPurchased",
      "type": "event"
    },
    {
      "anonymous": false,
      "inputs": [
        {
          "indexed": true,
          "internalType": "address",
          "name": "claimer",
          "type": "address"
        },
        {
          "indexed": false,
          "internalType": "uint256",
          "name": "amount",
          "type": "uint256"
        }
      ],
      "name": "TokensClaimed",
      "type": "event"
    },
    {
      "anonymous": false,
      "inputs": [
        {
          "indexed": false,
          "internalType": "uint256",
          "name": "tokenAmount",
          "type": "uint256"
        },
        {
          "indexed": false,
          "internalType": "uint256",
          "name": "ethReceived",
          "type": "uint256"
        }
      ],
      "name": "TokensSwapped",
      "type": "event"
    },
    {
      "anonymous": false,
      "inputs": [
        {
          "indexed": true,
          "internalType": "address",
          "name": "from",
          "type": "address"
        },
        {
          "indexed": true,
          "internalType": "address",
          "name": "to",
          "type": "address"
        },
        {
          "indexed": false,
          "internalType": "uint256",
          "name": "amount",
          "type": "uint256"
        }
      ],
      "name": "TokensTransferred",
      "type": "event"
    },
    {
      "inputs": [],
      "name": "amountSold",
      "outputs": [
        {
          "internalType": "uint256",
          "name": "",
          "type": "uint256"
        }
      ],
      "stateMutability": "view",
      "type": "function"
    },
    {
      "inputs": [],
      "name": "buyToken",
      "outputs": [],
      "stateMutability": "payable",
      "type": "function"
    },
    {
      "inputs": [
        {
          "internalType": "uint256",
          "name": "ethAmount",
          "type": "uint256"
        }
      ],
      "name": "calculateTokens",
      "outputs": [
        {
          "internalType": "uint256",
          "name": "",
          "type": "uint256"
        }
      ],
      "stateMutability": "view",
      "type": "function"
    },
    {
      "inputs": [],
      "name": "claimRefund",
      "outputs": [],
      "stateMutability": "nonpayable",
      "type": "function"
    },
    {
      "inputs": [],
      "name": "claimTokens",
      "outputs": [],
      "stateMutability": "nonpayable",
      "type": "function"
    },
    {
      "inputs": [],
      "name": "completed",
      "outputs": [
        {
          "internalType": "bool",
          "name": "",
          "type": "bool"
        }
      ],
      "stateMutability": "view",
      "type": "function"
    },
    {
      "inputs": [
        {
          "internalType": "address",
          "name": "",
          "type": "address"
        }
      ],
      "name": "contributions",
      "outputs": [
        {
          "internalType": "uint256",
          "name": "",
          "type": "uint256"
        }
      ],
      "stateMutability": "view",
      "type": "function"
    },
    {
      "inputs": [],
      "name": "creator",
      "outputs": [
        {
          "internalType": "address",
          "name": "",
          "type": "address"
        }
      ],
      "stateMutability": "view",
      "type": "function"
    },
    {
      "inputs": [],
      "name": "endPresale",
      "outputs": [],
      "stateMutability": "nonpayable",
      "type": "function"
    },
    {
      "inputs": [],
      "name": "endTime",
      "outputs": [
        {
          "internalType": "uint256",
          "name": "",
          "type": "uint256"
        }
      ],
      "stateMutability": "view",
      "type": "function"
    },
    {
      "inputs": [],
      "name": "factory",
      "outputs": [
        {
          "internalType": "address",
          "name": "",
          "type": "address"
        }
      ],
      "stateMutability": "view",
      "type": "function"
    },
    {
      "inputs": [],
      "name": "getLiquidityPair",
      "outputs": [],
      "stateMutability": "nonpayable",
      "type": "function"
    },
    {
      "inputs": [],
      "name": "getOwner",
      "outputs": [
        {
          "internalType": "address",
          "name": "",
          "type": "address"
        }
      ],
      "stateMutability": "view",
      "type": "function"
    },
    {
      "inputs": [],
      "name": "hardCap",
      "outputs": [
        {
          "internalType": "uint256",
          "name": "",
          "type": "uint256"
        }
      ],
      "stateMutability": "view",
      "type": "function"
    },
    {
      "inputs": [
        {
          "internalType": "address",
          "name": "_token",
          "type": "address"
        },
        {
          "internalType": "uint256",
          "name": "_rate",
          "type": "uint256"
        },
        {
          "internalType": "uint256",
          "name": "_price",
          "type": "uint256"
        },
        {
          "internalType": "uint256",
          "name": "_startTime",
          "type": "uint256"
        },
        {
          "internalType": "uint256",
          "name": "_endTime",
          "type": "uint256"
        },
        {
          "internalType": "uint256",
          "name": "_totalToken",
          "type": "uint256"
        },
        {
          "internalType": "uint256",
          "name": "_hardCap",
          "type": "uint256"
        },
        {
          "internalType": "uint256",
          "name": "_softCap",
          "type": "uint256"
        }
      ],
      "name": "initialize",
      "outputs": [],
      "stateMutability": "nonpayable",
      "type": "function"
    },
    {
      "inputs": [],
      "name": "liquidityPair",
      "outputs": [
        {
          "internalType": "address",
          "name": "",
          "type": "address"
        }
      ],
      "stateMutability": "view",
      "type": "function"
    },
    {
      "inputs": [
        {
          "internalType": "address[]",
          "name": "recipients",
          "type": "address[]"
        },
        {
          "internalType": "uint256[]",
          "name": "amounts",
          "type": "uint256[]"
        }
      ],
      "name": "multiTransfer",
      "outputs": [],
      "stateMutability": "nonpayable",
      "type": "function"
    },
    {
      "inputs": [],
      "name": "owner",
      "outputs": [
        {
          "internalType": "address",
          "name": "",
          "type": "address"
        }
      ],
      "stateMutability": "view",
      "type": "function"
    },
    {
      "inputs": [],
      "name": "price",
      "outputs": [
        {
          "internalType": "uint256",
          "name": "",
          "type": "uint256"
        }
      ],
      "stateMutability": "view",
      "type": "function"
    },
    {
      "inputs": [],
      "name": "rate",
      "outputs": [
        {
          "internalType": "uint256",
          "name": "",
          "type": "uint256"
        }
      ],
      "stateMutability": "view",
      "type": "function"
    },
    {
      "inputs": [],
      "name": "router",
      "outputs": [
        {
          "internalType": "address",
          "name": "",
          "type": "address"
        }
      ],
      "stateMutability": "view",
      "type": "function"
    },
    {
      "inputs": [],
      "name": "softCap",
      "outputs": [
        {
          "internalType": "uint256",
          "name": "",
          "type": "uint256"
        }
      ],
      "stateMutability": "view",
      "type": "function"
    },
    {
      "inputs": [],
      "name": "startTime",
      "outputs": [
        {
          "internalType": "uint256",
          "name": "",
          "type": "uint256"
        }
      ],
      "stateMutability": "view",
      "type": "function"
    },
    {
      "inputs": [],
      "name": "successful",
      "outputs": [
        {
          "internalType": "bool",
          "name": "",
          "type": "bool"
        }
      ],
      "stateMutability": "view",
      "type": "function"
    },
    {
      "inputs": [],
      "name": "token",
      "outputs": [
        {
          "internalType": "address",
          "name": "",
          "type": "address"
        }
      ],
      "stateMutability": "view",
      "type": "function"
    },
    {
      "inputs": [],
      "name": "tokenHolder",
      "outputs": [
        {
          "internalType": "address",
          "name": "",
          "type": "address"
        }
      ],
      "stateMutability": "view",
      "type": "function"
    },
    {
      "inputs": [],
      "name": "totalClaimed",
      "outputs": [
        {
          "internalType": "uint256",
          "name": "",
          "type": "uint256"
        }
      ],
      "stateMutability": "view",
      "type": "function"
    },
    {
      "inputs": [],
      "name": "totalRaised",
      "outputs": [
        {
          "internalType": "uint256",
          "name": "",
          "type": "uint256"
        }
      ],
      "stateMutability": "view",
      "type": "function"
    },
    {
      "inputs": [],
      "name": "totalToken",
      "outputs": [
        {
          "internalType": "uint256",
          "name": "",
          "type": "uint256"
        }
      ],
      "stateMutability": "view",
      "type": "function"
    },
    {
      "inputs": [],
      "name": "wrapped",
      "outputs": [
        {
          "internalType": "address",
          "name": "",
          "type": "address"
        }
      ],
      "stateMutability": "view",
      "type": "function"
    }
  ],
  "bytecode": "0x60806040523480156200001157600080fd5b50604051620030ec380380620030ec833981810160405281019062000037919062000231565b336000806101000a81548173ffffffffffffffffffffffffffffffffffffffff021916908373ffffffffffffffffffffffffffffffffffffffff16021790555084600160006101000a81548173ffffffffffffffffffffffffffffffffffffffff021916908373ffffffffffffffffffffffffffffffffffffffff16021790555083600360006101000a81548173ffffffffffffffffffffffffffffffffffffffff021916908373ffffffffffffffffffffffffffffffffffffffff16021790555082600560006101000a81548173ffffffffffffffffffffffffffffffffffffffff021916908373ffffffffffffffffffffffffffffffffffffffff16021790555081600660006101000a81548173ffffffffffffffffffffffffffffffffffffffff021916908373ffffffffffffffffffffffffffffffffffffffff16021790555080600460006101000a81548173ffffffffffffffffffffffffffffffffffffffff021916908373ffffffffffffffffffffffffffffffffffffffff1602179055505050505050620002b9565b600080fd5b600073ffffffffffffffffffffffffffffffffffffffff82169050919050565b6000620001f982620001cc565b9050919050565b6200020b81620001ec565b81146200021757600080fd5b50565b6000815190506200022b8162000200565b92915050565b600080600080600060a0868803121562000250576200024f620001c7565b5b600062000260888289016200021a565b955050602062000273888289016200021a565b945050604062000286888289016200021a565b935050606062000299888289016200021a565b9250506080620002ac888289016200021a565b9150509295509295909350565b612e2380620002c96000396000f3fe6080604052600436106101cd5760003560e01c80638da5cb5b116100f7578063a482171911610095578063d54ad2a111610064578063d54ad2a1146105df578063f887ea401461060a578063fb86a40414610635578063fc0c546a14610660576101cd565b8063a482171914610568578063b5545a3c14610572578063c45a015514610589578063c5c4744c146105b4576101cd565b80639a9e3fd8116100d15780639a9e3fd8146104d05780639d9a7fe9146104fb578063a035b1fe14610526578063a43be57b14610551576101cd565b80638da5cb5b14610463578063906a26e01461048e578063940d1f74146104b9576101cd565b806350e70d481161016f57806378e979251161013e57806378e97925146103b95780637ca5fc9d146103e4578063808a54571461040d578063893d20e814610438576101cd565b806350e70d48146102fb57806352a16bb014610326578063626be5671461035157806371aa60fd1461037c576101cd565b80633197cbb6116101ab5780633197cbb614610251578063420a83e71461027c57806342e94c90146102a757806348c54b9d146102e4576101cd565b806302d05d3f146101d25780631e89d545146101fd5780632c4e722e14610226575b600080fd5b3480156101de57600080fd5b506101e761068b565b6040516101f49190611d39565b60405180910390f35b34801561020957600080fd5b50610224600480360381019061021f9190611e19565b6106b1565b005b34801561023257600080fd5b5061023b610a34565b6040516102489190611eb3565b60405180910390f35b34801561025d57600080fd5b50610266610a3a565b6040516102739190611eb3565b60405180910390f35b34801561028857600080fd5b50610291610a40565b60405161029e9190611d39565b60405180910390f35b3480156102b357600080fd5b506102ce60048036038101906102c99190611efa565b610a66565b6040516102db9190611eb3565b60405180910390f35b3480156102f057600080fd5b506102f9610a7e565b005b34801561030757600080fd5b50610310610d63565b60405161031d9190611d39565b60405180910390f35b34801561033257600080fd5b5061033b610d89565b6040516103489190611eb3565b60405180910390f35b34801561035d57600080fd5b50610366610d8f565b6040516103739190611eb3565b60405180910390f35b34801561038857600080fd5b506103a3600480360381019061039e9190611f53565b610d95565b6040516103b09190611eb3565b60405180910390f35b3480156103c557600080fd5b506103ce610db9565b6040516103db9190611eb3565b60405180910390f35b3480156103f057600080fd5b5061040b60048036038101906104069190611f80565b610dbf565b005b34801561041957600080fd5b506104226112ad565b60405161042f9190611d39565b60405180910390f35b34801561044457600080fd5b5061044d6112d3565b60405161045a9190611d39565b60405180910390f35b34801561046f57600080fd5b506104786112fc565b6040516104859190611d39565b60405180910390f35b34801561049a57600080fd5b506104a3611320565b6040516104b09190611eb3565b60405180910390f35b3480156104c557600080fd5b506104ce611326565b005b3480156104dc57600080fd5b506104e56114bf565b6040516104f29190612051565b60405180910390f35b34801561050757600080fd5b506105106114d2565b60405161051d9190612051565b60405180910390f35b34801561053257600080fd5b5061053b6114e5565b6040516105489190611eb3565b60405180910390f35b34801561055d57600080fd5b506105666114eb565b005b6105706116a1565b005b34801561057e57600080fd5b506105876119c7565b005b34801561059557600080fd5b5061059e611c74565b6040516105ab9190611d39565b60405180910390f35b3480156105c057600080fd5b506105c9611c9a565b6040516105d69190611eb3565b60405180910390f35b3480156105eb57600080fd5b506105f4611ca0565b6040516106019190611eb3565b60405180910390f35b34801561061657600080fd5b5061061f611ca6565b60405161062c9190611d39565b60405180910390f35b34801561064157600080fd5b5061064a611ccc565b6040516106579190611eb3565b60405180910390f35b34801561066c57600080fd5b50610675611cd2565b6040516106829190611d39565b60405180910390f35b600160009054906101000a900473ffffffffffffffffffffffffffffffffffffffff1681565b60008054906101000a900473ffffffffffffffffffffffffffffffffffffffff1673ffffffffffffffffffffffffffffffffffffffff163373ffffffffffffffffffffffffffffffffffffffff161461073f576040517f08c379a0000000000000000000000000000000000000000000000000000000008152600401610736906120ef565b60405180910390fd5b818190508484905014610787576040517f08c379a000000000000000000000000000000000000000000000000000000000815260040161077e9061215b565b60405180910390fd5b600080600090505b838390508110156107ce578383828181106107ad576107ac61217b565b5b90506020020135826107bf91906121d9565b9150808060010191505061078f565b5080600260009054906101000a900473ffffffffffffffffffffffffffffffffffffffff1673ffffffffffffffffffffffffffffffffffffffff166370a08231600360009054906101000a900473ffffffffffffffffffffffffffffffffffffffff166040518263ffffffff1660e01b815260040161084d9190611d39565b602060405180830381865afa15801561086a573d6000803e3d6000fd5b505050506040513d601f19601f8201168201806040525081019061088e9190612222565b10156108cf576040517f08c379a00000000000000000000000000000000000000000000000000000000081526004016108c6906122c1565b60405180910390fd5b60005b858590508110156109ef57600260009054906101000a900473ffffffffffffffffffffffffffffffffffffffff1673ffffffffffffffffffffffffffffffffffffffff166323b872dd600360009054906101000a900473ffffffffffffffffffffffffffffffffffffffff168888858181106109515761095061217b565b5b90506020020160208101906109669190611efa565b8787868181106109795761097861217b565b5b905060200201356040518463ffffffff1660e01b815260040161099e939291906122e1565b6020604051808303816000875af11580156109bd573d6000803e3d6000fd5b505050506040513d601f19601f820116820180604052508101906109e19190612344565b5080806001019150506108d2565b507f23e11dbf4831b6649f643c8dde4f94fe79162a57f8a2ff012c12c120620acead85858585604051610a2594939291906124af565b60405180910390a15050505050565b600a5481565b60095481565b600360009054906101000a900473ffffffffffffffffffffffffffffffffffffffff1681565b60136020528060005260406000206000915090505481565b6009544211610ac2576040517f08c379a0000000000000000000000000000000000000000000000000000000008152600401610ab990612536565b60405180910390fd5b601260009054906101000a900460ff16610b11576040517f08c379a0000000000000000000000000000000000000000000000000000000008152600401610b08906125a2565b60405180910390fd5b601260019054906101000a900460ff16610b60576040517f08c379a0000000000000000000000000000000000000000000000000000000008152600401610b579061260e565b60405180910390fd5b6000610baa601360003373ffffffffffffffffffffffffffffffffffffffff1673ffffffffffffffffffffffffffffffffffffffff16815260200190815260200160002054610d95565b905060008111610bef576040517f08c379a0000000000000000000000000000000000000000000000000000000008152600401610be69061267a565b60405180910390fd5b6000601360003373ffffffffffffffffffffffffffffffffffffffff1673ffffffffffffffffffffffffffffffffffffffff168152602001908152602001600020819055508060116000828254610c4691906121d9565b92505081905550600260009054906101000a900473ffffffffffffffffffffffffffffffffffffffff1673ffffffffffffffffffffffffffffffffffffffff166323b872dd600360009054906101000a900473ffffffffffffffffffffffffffffffffffffffff1633846040518463ffffffff1660e01b8152600401610cce939291906122e1565b6020604051808303816000875af1158015610ced573d6000803e3d6000fd5b505050506040513d601f19601f82011682018060405250810190610d119190612344565b503373ffffffffffffffffffffffffffffffffffffffff167f896e034966eaaf1adc54acc0f257056febbd300c9e47182cf761982cf1f5e43082604051610d589190611eb3565b60405180910390a250565b600460009054906101000a900473ffffffffffffffffffffffffffffffffffffffff1681565b600c5481565b600d5481565b6000600b54600a5483610da8919061269a565b610db2919061270b565b9050919050565b60085481565b81811115610e02576040517f08c379a0000000000000000000000000000000000000000000000000000000008152600401610df9906127ae565b60405180910390fd5b600073ffffffffffffffffffffffffffffffffffffffff168873ffffffffffffffffffffffffffffffffffffffff1603610e71576040517f08c379a0000000000000000000000000000000000000000000000000000000008152600401610e689061281a565b60405180910390fd5b600088905060008173ffffffffffffffffffffffffffffffffffffffff166370a08231600160009054906101000a900473ffffffffffffffffffffffffffffffffffffffff166040518263ffffffff1660e01b8152600401610ed39190611d39565b602060405180830381865afa158015610ef0573d6000803e3d6000fd5b505050506040513d601f19601f82011682018060405250810190610f149190612222565b9050600d548111610f5a576040517f08c379a0000000000000000000000000000000000000000000000000000000008152600401610f51906128ac565b60405180910390fd5b89600260006101000a81548173ffffffffffffffffffffffffffffffffffffffff021916908373ffffffffffffffffffffffffffffffffffffffff16021790555088600a8190555087600b81905550866008819055508560098190555084600d8190555083600e8190555082600f81905550600660009054906101000a900473ffffffffffffffffffffffffffffffffffffffff1673ffffffffffffffffffffffffffffffffffffffff1663e6a43905600260009054906101000a900473ffffffffffffffffffffffffffffffffffffffff16600460009054906101000a900473ffffffffffffffffffffffffffffffffffffffff166040518363ffffffff1660e01b815260040161106d9291906128cc565b602060405180830381865afa15801561108a573d6000803e3d6000fd5b505050506040513d601f19601f820116820180604052508101906110ae919061290a565b600760006101000a81548173ffffffffffffffffffffffffffffffffffffffff021916908373ffffffffffffffffffffffffffffffffffffffff1602179055507f492ed784106b7599b2526ffb478d1fd04d64e2a581909c71b224eec98132eb988a8a8a8a8a8a8a8a60405161112b989796959493929190612937565b60405180910390a18173ffffffffffffffffffffffffffffffffffffffff166323b872dd600160009054906101000a900473ffffffffffffffffffffffffffffffffffffffff16600360009054906101000a900473ffffffffffffffffffffffffffffffffffffffff16886040518463ffffffff1660e01b81526004016111b4939291906122e1565b6020604051808303816000875af11580156111d3573d6000803e3d6000fd5b505050506040513d601f19601f820116820180604052508101906111f79190612344565b50600360009054906101000a900473ffffffffffffffffffffffffffffffffffffffff1673ffffffffffffffffffffffffffffffffffffffff16600160009054906101000a900473ffffffffffffffffffffffffffffffffffffffff1673ffffffffffffffffffffffffffffffffffffffff167f1b89874203ff7f0bba87c969ada3f32fda22ed38a6706d35199d21280c7811b1876040516112999190611eb3565b60405180910390a350505050505050505050565b600760009054906101000a900473ffffffffffffffffffffffffffffffffffffffff1681565b60008060009054906101000a900473ffffffffffffffffffffffffffffffffffffffff16905090565b60008054906101000a900473ffffffffffffffffffffffffffffffffffffffff1681565b600f5481565b6000600660009054906101000a900473ffffffffffffffffffffffffffffffffffffffff1673ffffffffffffffffffffffffffffffffffffffff1663e6a43905600260009054906101000a900473ffffffffffffffffffffffffffffffffffffffff16600460009054906101000a900473ffffffffffffffffffffffffffffffffffffffff166040518363ffffffff1660e01b81526004016113c99291906128cc565b602060405180830381865afa1580156113e6573d6000803e3d6000fd5b505050506040513d601f19601f8201168201806040525081019061140a919061290a565b9050600073ffffffffffffffffffffffffffffffffffffffff168173ffffffffffffffffffffffffffffffffffffffff160361147b576040517f08c379a000000000000000000000000000000000000000000000000000000000815260040161147290612a01565b60405180910390fd5b80600760006101000a81548173ffffffffffffffffffffffffffffffffffffffff021916908373ffffffffffffffffffffffffffffffffffffffff16021790555050565b601260019054906101000a900460ff1681565b601260009054906101000a900460ff1681565b600b5481565b60008054906101000a900473ffffffffffffffffffffffffffffffffffffffff1673ffffffffffffffffffffffffffffffffffffffff163373ffffffffffffffffffffffffffffffffffffffff1614611579576040517f08c379a0000000000000000000000000000000000000000000000000000000008152600401611570906120ef565b60405180910390fd5b60095442116115bd576040517f08c379a00000000000000000000000000000000000000000000000000000000081526004016115b490612536565b60405180910390fd5b601260009054906101000a900460ff161561160d576040517f08c379a000000000000000000000000000000000000000000000000000000000815260040161160490612a6d565b60405180910390fd5b6001601260006101000a81548160ff021916908315150217905550600f54601054101580156116405750600e5460105411155b601260016101000a81548160ff0219169083151502179055507f91e30e462970418aec03bf832f842dfa3aa4deb15eb1496183b26429b2b29788601260019054906101000a900460ff166040516116979190612051565b60405180910390a1565b60085442101580156116b557506009544211155b6116f4576040517f08c379a00000000000000000000000000000000000000000000000000000000081526004016116eb90612ad9565b60405180910390fd5b600e5434600c5461170591906121d9565b1115611746576040517f08c379a000000000000000000000000000000000000000000000000000000000815260040161173d90612b45565b60405180910390fd5b600b5434101561178b576040517f08c379a000000000000000000000000000000000000000000000000000000000815260040161178290612bb1565b60405180910390fd5b600061179634610d95565b905034601360003373ffffffffffffffffffffffffffffffffffffffff1673ffffffffffffffffffffffffffffffffffffffff16815260200190815260200160002060008282546117e791906121d9565b9250508190555034600c600082825461180091906121d9565b92505081905550346010600082825461181991906121d9565b925050819055506000600360009054906101000a900473ffffffffffffffffffffffffffffffffffffffff1673ffffffffffffffffffffffffffffffffffffffff163460405161186890612c02565b60006040518083038185875af1925050503d80600081146118a5576040519150601f19603f3d011682016040523d82523d6000602084013e6118aa565b606091505b50509050806118ee576040517f08c379a00000000000000000000000000000000000000000000000000000000081526004016118e590612c63565b60405180910390fd5b600360009054906101000a900473ffffffffffffffffffffffffffffffffffffffff1673ffffffffffffffffffffffffffffffffffffffff163373ffffffffffffffffffffffffffffffffffffffff167fd37054e910e2653e952b17b957944aaf15ef4ed5e4fc5aedbc3f6b9327df7f383460405161196d9190611eb3565b60405180910390a33373ffffffffffffffffffffffffffffffffffffffff167f55c18555197c6574627cf460c66073d10aa05d412468800b7b71feeaf82ea92d836040516119bb9190611eb3565b60405180910390a25050565b6009544211611a0b576040517f08c379a0000000000000000000000000000000000000000000000000000000008152600401611a0290612536565b60405180910390fd5b601260009054906101000a900460ff16611a5a576040517f08c379a0000000000000000000000000000000000000000000000000000000008152600401611a51906125a2565b60405180910390fd5b601260019054906101000a900460ff1615611aaa576040517f08c379a0000000000000000000000000000000000000000000000000000000008152600401611aa190612cf5565b60405180910390fd5b6000601360003373ffffffffffffffffffffffffffffffffffffffff1673ffffffffffffffffffffffffffffffffffffffff16815260200190815260200160002054905060008111611b31576040517f08c379a0000000000000000000000000000000000000000000000000000000008152600401611b2890612d61565b60405180910390fd5b6000601360003373ffffffffffffffffffffffffffffffffffffffff1673ffffffffffffffffffffffffffffffffffffffff1681526020019081526020016000208190555060003373ffffffffffffffffffffffffffffffffffffffff1682604051611b9c90612c02565b60006040518083038185875af1925050503d8060008114611bd9576040519150601f19603f3d011682016040523d82523d6000602084013e611bde565b606091505b5050905080611c22576040517f08c379a0000000000000000000000000000000000000000000000000000000008152600401611c1990612dcd565b60405180910390fd5b3373ffffffffffffffffffffffffffffffffffffffff167f358fe4192934d3bf28ae181feda1f4bd08ca67f5e2fad55582cce5eb67304ae983604051611c689190611eb3565b60405180910390a25050565b600660009054906101000a900473ffffffffffffffffffffffffffffffffffffffff1681565b60105481565b60115481565b600560009054906101000a900473ffffffffffffffffffffffffffffffffffffffff1681565b600e5481565b600260009054906101000a900473ffffffffffffffffffffffffffffffffffffffff1681565b600073ffffffffffffffffffffffffffffffffffffffff82169050919050565b6000611d2382611cf8565b9050919050565b611d3381611d18565b82525050565b6000602082019050611d4e6000830184611d2a565b92915050565b600080fd5b600080fd5b600080fd5b600080fd5b600080fd5b60008083601f840112611d8357611d82611d5e565b5b8235905067ffffffffffffffff811115611da057611d9f611d63565b5b602083019150836020820283011115611dbc57611dbb611d68565b5b9250929050565b60008083601f840112611dd957611dd8611d5e565b5b8235905067ffffffffffffffff811115611df657611df5611d63565b5b602083019150836020820283011115611e1257611e11611d68565b5b9250929050565b60008060008060408587031215611e3357611e32611d54565b5b600085013567ffffffffffffffff811115611e5157611e50611d59565b5b611e5d87828801611d6d565b9450945050602085013567ffffffffffffffff811115611e8057611e7f611d59565b5b611e8c87828801611dc3565b925092505092959194509250565b6000819050919050565b611ead81611e9a565b82525050565b6000602082019050611ec86000830184611ea4565b92915050565b611ed781611d18565b8114611ee257600080fd5b50565b600081359050611ef481611ece565b92915050565b600060208284031215611f1057611f0f611d54565b5b6000611f1e84828501611ee5565b91505092915050565b611f3081611e9a565b8114611f3b57600080fd5b50565b600081359050611f4d81611f27565b92915050565b600060208284031215611f6957611f68611d54565b5b6000611f7784828501611f3e565b91505092915050565b600080600080600080600080610100898b031215611fa157611fa0611d54565b5b6000611faf8b828c01611ee5565b9850506020611fc08b828c01611f3e565b9750506040611fd18b828c01611f3e565b9650506060611fe28b828c01611f3e565b9550506080611ff38b828c01611f3e565b94505060a06120048b828c01611f3e565b93505060c06120158b828c01611f3e565b92505060e06120268b828c01611f3e565b9150509295985092959890939650565b60008115159050919050565b61204b81612036565b82525050565b60006020820190506120666000830184612042565b92915050565b600082825260208201905092915050565b7f4f6e6c79206f776e65722063616e20706572666f726d2074686973206163746960008201527f6f6e000000000000000000000000000000000000000000000000000000000000602082015250565b60006120d960228361206c565b91506120e48261207d565b604082019050919050565b60006020820190508181036000830152612108816120cc565b9050919050565b7f496e76616c696420696e70757420617272617973000000000000000000000000600082015250565b600061214560148361206c565b91506121508261210f565b602082019050919050565b6000602082019050818103600083015261217481612138565b9050919050565b7f4e487b7100000000000000000000000000000000000000000000000000000000600052603260045260246000fd5b7f4e487b7100000000000000000000000000000000000000000000000000000000600052601160045260246000fd5b60006121e482611e9a565b91506121ef83611e9a565b9250828201905080821115612207576122066121aa565b5b92915050565b60008151905061221c81611f27565b92915050565b60006020828403121561223857612237611d54565b5b60006122468482850161220d565b91505092915050565b7f496e73756666696369656e7420746f6b656e20686f6c6465722062616c616e6360008201527f6500000000000000000000000000000000000000000000000000000000000000602082015250565b60006122ab60218361206c565b91506122b68261224f565b604082019050919050565b600060208201905081810360008301526122da8161229e565b9050919050565b60006060820190506122f66000830186611d2a565b6123036020830185611d2a565b6123106040830184611ea4565b949350505050565b61232181612036565b811461232c57600080fd5b50565b60008151905061233e81612318565b92915050565b60006020828403121561235a57612359611d54565b5b60006123688482850161232f565b91505092915050565b600082825260208201905092915050565b6000819050919050565b61239581611d18565b82525050565b60006123a7838361238c565b60208301905092915050565b60006123c26020840184611ee5565b905092915050565b6000602082019050919050565b60006123e38385612371565b93506123ee82612382565b8060005b858110156124275761240482846123b3565b61240e888261239b565b9750612419836123ca565b9250506001810190506123f2565b5085925050509392505050565b600082825260208201905092915050565b600080fd5b82818337505050565b600061245f8385612434565b93507f07ffffffffffffffffffffffffffffffffffffffffffffffffffffffffffffff83111561249257612491612445565b5b6020830292506124a383858461244a565b82840190509392505050565b600060408201905081810360008301526124ca8186886123d7565b905081810360208301526124df818486612453565b905095945050505050565b7f50726573616c65206e6f7420656e646564207965740000000000000000000000600082015250565b600061252060158361206c565b915061252b826124ea565b602082019050919050565b6000602082019050818103600083015261254f81612513565b9050919050565b7f50726573616c65206e6f742066696e616c697a65640000000000000000000000600082015250565b600061258c60158361206c565b915061259782612556565b602082019050919050565b600060208201905081810360008301526125bb8161257f565b9050919050565b7f50726573616c6520646964206e6f7420726561636820736f6674436170000000600082015250565b60006125f8601d8361206c565b9150612603826125c2565b602082019050919050565b60006020820190508181036000830152612627816125eb565b9050919050565b7f4e6f20746f6b656e7320746f20636c61696d0000000000000000000000000000600082015250565b600061266460128361206c565b915061266f8261262e565b602082019050919050565b6000602082019050818103600083015261269381612657565b9050919050565b60006126a582611e9a565b91506126b083611e9a565b92508282026126be81611e9a565b915082820484148315176126d5576126d46121aa565b5b5092915050565b7f4e487b7100000000000000000000000000000000000000000000000000000000600052601260045260246000fd5b600061271682611e9a565b915061272183611e9a565b925082612731576127306126dc565b5b828204905092915050565b7f536f6674436170206d757374206265206c657373207468616e206f722065717560008201527f616c20746f204861726443617000000000000000000000000000000000000000602082015250565b6000612798602d8361206c565b91506127a38261273c565b604082019050919050565b600060208201905081810360008301526127c78161278b565b9050919050565b7f496e76616c696420746f6b656e20616464726573730000000000000000000000600082015250565b600061280460158361206c565b915061280f826127ce565b602082019050919050565b60006020820190508181036000830152612833816127f7565b9050919050565b7f43726561746f7220646f6573206e6f74206861766520656e6f75676820746f6b60008201527f656e2062616c616e636500000000000000000000000000000000000000000000602082015250565b6000612896602a8361206c565b91506128a18261283a565b604082019050919050565b600060208201905081810360008301526128c581612889565b9050919050565b60006040820190506128e16000830185611d2a565b6128ee6020830184611d2a565b9392505050565b60008151905061290481611ece565b92915050565b6000602082840312156129205761291f611d54565b5b600061292e848285016128f5565b91505092915050565b60006101008201905061294d600083018b611d2a565b61295a602083018a611ea4565b6129676040830189611ea4565b6129746060830188611ea4565b6129816080830187611ea4565b61298e60a0830186611ea4565b61299b60c0830185611ea4565b6129a860e0830184611ea4565b9998505050505050505050565b7f4c6971756964697479207061697220646f6573206e6f74206578697374000000600082015250565b60006129eb601d8361206c565b91506129f6826129b5565b602082019050919050565b60006020820190508181036000830152612a1a816129de565b9050919050565b7f50726573616c6520616c726561647920656e6465640000000000000000000000600082015250565b6000612a5760158361206c565b9150612a6282612a21565b602082019050919050565b60006020820190508181036000830152612a8681612a4a565b9050919050565b7f50726573616c65206e6f74206163746976650000000000000000000000000000600082015250565b6000612ac360128361206c565b9150612ace82612a8d565b602082019050919050565b60006020820190508181036000830152612af281612ab6565b9050919050565b7f4861726420636170207265616368656400000000000000000000000000000000600082015250565b6000612b2f60108361206c565b9150612b3a82612af9565b602082019050919050565b60006020820190508181036000830152612b5e81612b22565b9050919050565b7f496e73756666696369656e74204554482073656e740000000000000000000000600082015250565b6000612b9b60158361206c565b9150612ba682612b65565b602082019050919050565b60006020820190508181036000830152612bca81612b8e565b9050919050565b600081905092915050565b50565b6000612bec600083612bd1565b9150612bf782612bdc565b600082019050919050565b6000612c0d82612bdf565b9150819050919050565b7f5472616e7366657220746f20746f6b656e486f6c646572206661696c65640000600082015250565b6000612c4d601e8361206c565b9150612c5882612c17565b602082019050919050565b60006020820190508181036000830152612c7c81612c40565b9050919050565b7f50726573616c65207265616368656420736f66744361702c206e6f207265667560008201527f6e64730000000000000000000000000000000000000000000000000000000000602082015250565b6000612cdf60238361206c565b9150612cea82612c83565b604082019050919050565b60006020820190508181036000830152612d0e81612cd2565b9050919050565b7f4e6f2066756e647320746f20726566756e640000000000000000000000000000600082015250565b6000612d4b60128361206c565b9150612d5682612d15565b602082019050919050565b60006020820190508181036000830152612d7a81612d3e565b9050919050565b7f526566756e64207472616e73666572206661696c656400000000000000000000600082015250565b6000612db760168361206c565b9150612dc282612d81565b602082019050919050565b60006020820190508181036000830152612de681612daa565b905091905056fea2646970667358221220ea1ab5285af56984046eb7c04a6c7315280c5ca5c1446b16d86387815f8d924064736f6c63430008160033",
  "linkReferences": {},
  "deployedLinkReferences": {}
}